:020000040800F2
:10000000F8F00020DD03000805B90008C9890008E0
:1000100001B90008DF3300088D030108000000006B
:100020000000000000000000000000001D030008A8
:100030000542000800000000790300084BC30008D7
:10004000F7030008F7030008F7030008F7030008A8
:10005000F7030008F703000807420008F703000849
:10006000F7030008114200081B420008F7030008CC
:10007000F7030008F7030008F7030008F703000878
:10008000F7030008F7030008F7030008F703000868
:10009000E5330008F7030008F703000825420008CD
:1000A000F7030008F7030008F7030008F703000848
:1000B000F7030008F7030008F7030008F703000838
:1000C000F7030008F7030008F7030008F703000828
:1000D000F7030008CDDE0008F7030008F1DF000891
:1000E000F7030008F7030008F7030008F703000808
:1000F000F7030008F7030008F7030008353E00087F
:10010000F7030008F7030008F7030008F7030008E7
:10011000F7030008F7030008F7030008F7030008D7
:10012000F7030008B13E0008F7030008F7030008D2
:10013000F7030008F7030008F7030008F7030008B7
:10014000F5330008F7030008F7030008D9BB0008DF
:10015000F7030008C13E0008D13E000831E1000865
:10016000F7030008F7030008F7030008F703000887
:10017000F7030008F7030008F70300080000000079
:10018000F7030008F703000800F002F800F0B6F8E3
:100190000AA090E8000C82448344AAF10107DA45E2
:1001A00001D100F0ABF8AFF2090EBAE80F0013F07E
:1001B000010F18BFFB1A43F001031847A0DC010030
:1001C000C0DC01000A444FF0000C10F8013B13F0B2
:1001D000070408BF10F8014B1D1108BF10F8015BA0
:1001E000641E05D010F8016B641E01F8016BF9D193
:1001F00013F0080F1EBF10F8014BAD1C0C1B09D1EA
:100200006D1E58BF01F801CBFAD505E014F8016B5B
:1002100001F8016B6D1EF9D59142D6D370470000ED
:100220000023002400250026103A28BF78C1FBD8FF
:10023000520728BF30C148BF0B6070476E2901F0DC
:100240002782702901F0798566291CF009826529C9
:100250001CF0068267291CF0038261291CF00282CF
:1002600003681B0A28BF41F08001692900F00E874E
:10027000642900F00B87752900F008876F2901F0C9
:100280000685782901F04585E92901F0A184E42952
:1002900001F09E84F52901F09B84EF2901F003858C
:1002A000F82901F044850368DB0928BF41F080018B
:1002B000632901F09987732901F09E87E32901F0F2
:1002C000A987F32901F0AE87002070471FB51CF005
:1002D0000FF99DE8030001F0DFF801F03DFD040097
:1002E000002000211AF0F6FC401C60600020002174
:1002F0001AF0DAFCE0601FBD10B510BD02F030F856
:100300001146FFF7E3FF16F035F802F057F803B493
:10031000FFF7F2FF03BC02F0CFF800002C4B196886
:100320000868B0E8F04F80F30988BFF36F8F4FF093
:10033000000080F311887047000000000848006842
:10034000006880F308884FF0000080F3148862B6DC
:1003500061B6BFF34F8FBFF36F8F00DF00BF00BFE9
:1003600008ED00E0DFF80C00016841F47001016065
:10037000704700BF88ED00E0EFF30980BFF36F8F97
:10038000134B1A681EF0100F08BF20ED108A20E9E9
:10039000F04F106009B44FF0500080F31188BFF3A4
:1003A0004F8FBFF36F8F19F0EDF84FF0000080F31F
:1003B000118809BC19680868B0E8F04F1EF0100FEA
:1003C00008BFB0EC108A80F30988BFF36F8F7047C5
:1003D000B0000020EFF30580704700000948804717
:1003E00009480047FEE7FEE7FEE7FEE7FEE7FEE717
:1003F000FEE7FEE7FEE7FEE704480549054A064B2F
:10040000704700002DC4000889010008F8B00020E2
:10041000F8F00020F8D00020F8D000209FED1A1A44
:10042000F5EE000A40EE010ABDEEE00AF5EEC00A64
:1004300010EE100AF1EE10FA38BF401E00EE100A5E
:100440001349F7EE001AB8EEC00A30EEC00ADFED2D
:100450000F0A20EE200AFCEEC00A10EE900AC0F34C
:10046000080000EE900A01EB8000F8EE600A90EDC3
:10047000011A70EE600A90ED000A71EEE01A21EEAA
:10048000800A00EE810A704783F9223E0000004492
:100490008CD10108DFED190AB5EEC00A60EE200A22
:1004A000BDEEE01A11EE100AF1EE10FA38BF401E50
:1004B00000EE100A1349F7EE001AB8EEC00A30EE4B
:1004C000C00ADFED0F0A60EE200ABCEEE00A10EE73
:1004D000100AC0F3080000EE100A01EB8000B8EE2D
:1004E000400A90ED011A70EEC00A90ED000A71EE1C
:1004F000E01A21EE800A00EE810A704783F9223E5D
:10050000000000448CD1010870B405880E8844684E
:10051000D1F804C05368B54208D140884988884260
:1005200001BF11888D425188884203D070BC6FF0A2
:100530000200704705FB00F1880827D094ED001AEF
:10054000DCED000A94ED010ADCED011A31EE201A0F
:10055000D4ED020A70EE211A9CED020A83ED001A16
:10056000C3ED011A94ED031ADCED031A30EE800A94
:10057000401E71EE210A83ED020A04F11004C3ED5E
:10058000030A03F110030CF1100CD7D111F0030092
:1005900030D0B0F1004F30D200282BDD211F1B1FBF
:1005A000ACF1040210F0010F0AD091ED010AD2ED76
:1005B000010A091D121D30EE200A83ED010A1B1DE0
:1005C000400817D091ED010AD2ED010A401E30EE2D
:1005D000200A83ED010A91ED020AD2ED020A01F12F
:1005E000080102F1080230EE200A83ED020A03F14D
:1005F0000803E7D170BC00207047B4EC010A401E2C
:10060000FCEC010A30EE200AA3EC010AF5D1F1E777
:1006100001804280436070472DE9F34F84B0049815
:1006200040680090486801900498B0F800E0458860
:10063000DFEDFE0A00200290B0EE600AAE4506D162
:1006400008884988884204BF7146864504D06FF007
:10065000020006B0BDE8F08F01985FEA010C18BFF8
:10066000B7EE001A3DD000BFBEEB0C0117D0B1F1C0
:10067000004F80F01F82002911DD021F11F0010FD1
:100680001CBFC2ED010A121D4B1006D0C2ED010ABB
:10069000C2ED020A08325B1EF8D100EB8100BCF10A
:1006A0000102A0EC011A19D0B2F1004F80F00882CB
:1006B000002A13DD031F12F0010F1CBFC3ED010A56
:1006C0001B1D511008D000BFC3ED010AC3ED020A83
:1006D000491E03F10803F7D100EB8200BCF1010CC5
:1006E000C2D14FF000080395002D14BFB0EE602A70
:1006F000002000F0BF8100BF009908FB05F001EB6E
:10070000800B0199DBED002A01EB80000346F0EE3F
:10071000421AC64552D9AEEB0802ABEB850112F086
:10072000010F17D001EB850191ED000AB5EEC00A6B
:10073000F1EE10FA07DDB4EEE10AF1EE10FA09DD90
:10074000F0EE401A06E0B1EE400AF4EEC01AF1EE07
:1007500010FAF5D3521031D001EB850C9CED000A54
:10076000B5EEC00AF1EE10FA05DDB4EEE10AF1EEE5
:1007700010FA09DD06E0B1EE400AF4EEC01AF1EE1F
:1007800010FA01D2F0EE401A01EBC50191ED000A1A
:10079000B5EEC00AF1EE10FA05DDB4EEE10AF1EEB5
:1007A00010FA09DD06E0B1EE400AF4EEC01AF1EEEF
:1007B00010FA01D2F0EE401A521ECDD1F5EEC01A59
:1007C000F1EE10FA00F07381F5EEC02A0126F1EE89
:1007D00010FA0099D4BFB1EE620AB0EE620AB4EE2C
:1007E000610AF1EE10FA1CBFAEEB0802B2F1010C87
:1007F00047D005FB08F201EB820292ED001A00BF20
:10080000B0EE410A05FB06F4B5EEC00A00EB840425
:10081000F1EE10FACCBFF0EE400AF1EE400AF4EE31
:10082000610AF1EE10FA28D1B5EB080C11D0BCF139
:10083000004F7DD2BCF1000F0BDD00BF92ED000A2E
:10084000D1ED000ABCF1010CE2EC010AA1EC010AB5
:10085000F4D129000ED0B1F1004F6AD2002909DD90
:1008600094ED000AD0ED000A491EE4EC010AA0EC68
:10087000010AF5D1012002900BE0761CBCF1010CBD
:10088000BED10298012804D0F5EEC02AF1EE10FA8C
:100890007ED09BED000AB5EB08009A465946064605
:1008A00022D0B0F1004F74D200281DDD091F10F0D6
:1008B000010F06D0F0EE400A80EEA01A81ED011A79
:1008C000091D401010D000BFD1ED010A401E80EE7E
:1008D000801A81ED011A91ED021AC1EE000AC1EDF4
:1008E000020A01F10801EFD1280026D0B0F1004F33
:1008F0007ED2002821DDAAF1040110F0010F06D0FC
:10090000D1ED010A80EE801A81ED011A091D401017
:1009100013D000BFD1ED010A401E80EE801A81ED98
:10092000011AD1ED020A80EE801A81ED021A01E06F
:10093000CBE0D6E001F10801ECD1DDE900124FF087
:1009400000095FEA0E0773D0C14504BF01EB8601C1
:1009500002EB850274D091ED000ADC46504633006C
:1009600035D01C46B6F1004F7ED2002C2FDD0B1F78
:10097000ABF1040C16F0010F0FD0F0EE400ADCEDE5
:10098000011AB0EE601A00EEE11A83ED011A01E0DF
:100990008DE0B1E01B1D0CF1040C741015D000BFEC
:1009A000D3ED010A9CED011A40EE410AC3ED010AA4
:1009B000D3ED020A9CED021A0CF1080C40EE410A3C
:1009C000C3ED020A0833641EEAD101EB86012B0055
:1009D00036D0B3F1004F72D2002B31DDA2F1040CFE
:1009E000AAF1040013F0010F0CD0DCED010A00E0C5
:1009F0008BE090ED011A001D40EE410ACCED010A9A
:100A00000CF1040C5C1019D0DCED010A90ED011A18
:100A100040EE410ACCED010ADCED020A90ED021A2B
:100A2000083040EE410ACCED020A03E0000000006D
:100A30000DE005E0641E0CF1080CE5D102EB830229
:100A400001EB88017F1E09F101097FF47DAF009859
:100A500008F10108001D00900398401E03907FF4E8
:100A60004BAE0299012900E058E004BF06B0BDE892
:100A7000F08F00BFB5EEC00AF1EE10FA7FF4E9ADD9
:100A800004990EFB05F3002B4A684FF000010BD9C7
:100A900002EB810C9CED000AB5EEC00AF1EE10FAF3
:100AA00002D1491C8B42F3D88B427FF4D2AD6FF058
:100AB0000400CEE5E0EC010A491EFBD1EFE538E089
:100AC000E0EC010A521EFBD108E692ED000AD1EDDE
:100AD000000ABCF1010CE2EC010AA1EC010AF4D11C
:100AE000B7E694ED000AD0ED000A491EE4EC010AD5
:100AF000A0EC010AF5D1BDE6D1ED000A401E80EE62
:100B0000801AA1EC011AF7D1EEE6D3ED000A401EDF
:100B100080EE801AA3EC011AF7D10EE7BCEC011AA3
:100B2000D1ED000A5B1E40EE410AE1EC010AF5D16D
:100B30004DE7B0EC011AD2ED000A5B1E40EE410A0F
:100B4000E2EC010AF5D17BE72DE9F04F82B046686F
:100B500053680193058847884B88002000900888D7
:100B6000874201BFB2F800C06545528893421EBF5C
:100B70006FF0020002B0BDE8F08F9FED412A4FEA0E
:100B8000970EC7F3400B00BFDDE9000202EB800ABD
:100B90004A6898464FF00009B0EE420AB4465FEA50
:100BA0000E0025D092ED001ADCED001A02EB830254
:100BB000DCED010A01EE810A92ED001A02EB8302DC
:100BC000401ED2ED001A02EB830200EE810A9CED7A
:100BD000021ADCED030A00040CF1100C000C01EE0B
:100BE000210A92ED001A02EB830200EE810AD9D1AC
:100BF00017F0030026D0ACF10404A2EB830210F03E
:100C0000010F08D002EB8302D4ED010A92ED001A25
:100C1000241D00EE810A5FEA0B0013D002EB830C67
:100C2000D4ED010A9CED001A02EBC302401E00EE57
:100C3000810AD4ED020A92ED001A04F1080400EED4
:100C4000810AEBD109F10100AAEC010A1FFA80F92F
:100C5000486800EB8902A8F101001FFA80F8B8F19A
:100C6000000F99D1009806EB8706184480B20090D7
:100C7000681E05042D0C87D102B00020BDE8F08F5E
:100C80000000000070B405880E884468D1F804C0E4
:100C90005368B54208D140884988884201BF11880D
:100CA0008D425188884203D070BC6FF002007047BB
:100CB00005FB00F1880827D094ED001ADCED000A4E
:100CC00094ED010ADCED011A31EE601AD4ED020A4E
:100CD00070EE611A9CED020A83ED001AC3ED011A51
:100CE00094ED031ADCED031A30EEC00A401E71EEDB
:100CF000610A83ED020A04F11004C3ED030A03F153
:100D000010030CF1100CD7D111F0030030D0B0F16A
:100D1000004F30D200282BDD211F1B1FACF1040235
:100D200010F0010F0AD091ED010AD2ED010A091D60
:100D3000121D30EE600A83ED010A1B1D400817D01A
:100D400091ED010AD2ED010A401E30EE600A83EDFA
:100D5000010A91ED020AD2ED020A01F1080102F145
:100D6000080230EE600A83ED020A03F10803E7D1BE
:100D700070BC00207047B4EC010A401EFCEC010A74
:100D800030EE600AA3EC010AF5D1F1E72DE9F04F4E
:100D900002884768B0F802804888D1F8049082B091
:100DA0004FF0000A1646824207BF098888456FF057
:100DB000020002B018BFBDE8F08F4FEA980B02EBBB
:100DC00042000190C8F34000CDF8000009EB8A0111
:100DD000BBF1000F33D0019801EB820C01EB8004D2
:100DE0003B46E64601EBC2054FEA0B0093ED000AD5
:100DF000401E81ED000A93ED010A01EB02118CED1A
:100E0000000A93ED020A0CEB021C85ED000A93ED3B
:100E1000030A05EB021584ED000A04EB021403F14A
:100E20001003E3D10EEB820000EB820000EB8201A5
:100E3000ABF10100504307EB0B1701EB001118F069
:100E4000030C21D03B1FA1EB82011CF0010F06D047
:100E500093ED010A01EB82011B1D81ED000A009850
:100E600080B100BF93ED010A01EB820401EBC201E6
:100E700084ED000A93ED020A401E81ED000A03F1A1
:100E80000803EFD107EB8C070AF101001FFA80FA83
:100E9000701E0604360C99D102B00020BDE8F08F18
:100EA00070B5064600F0DCFA056806F10B0020F08C
:100EB0000704B4429CBF002070BD2B466A68BAB1DB
:100EC0001068A04210D304F1080188423CBF50686A
:100ED000586007D35168101941601168091B0160FF
:100EE00058601460101D70BD13465268002AE7D187
:100EF0002146284600F0BCFA0028DED170BD70B54E
:100F00000446051F00F0ACFA0068002C14BF4468CA
:100F100070BD002C18BFAC423CBF20466468F8D3BB
:100F200001680A18AA4218BF456003D12A6805461D
:100F30001144016028684119A1421CBF6C6070BD5A
:100F40006168696021680844286070BD53EA020C3A
:100F500000F069802DE9F04B4FF00006002B1FBF19
:100F6000B3FA83F503FA05F424FA05F65E4012BFDE
:100F70001643B2FA82F502FA05F4C5F120051EBF48
:100F800022FA05FC44EA0C04203556EA044C4FEAE8
:100F9000144418BF641C4FF000084FF00009904241
:100FA00071EB030C39D3002919BFB1FA81F701FAAB
:100FB00007F6B0FA80F700FA07F6C7F120071EBF60
:100FC00020FA07FC46EA0C062037B6FBF4FCA7EB38
:100FD0000507103F07F01F0BCBF120060CFA0BFBA7
:100FE0002CFA06F644BFB3460026202FA4BF5E4667
:100FF0004FF0000B5BEA060C08BF4FF0010B19EB3A
:101000000B09ABFB027C48EB0608C01B06FB02CCBD
:101010000BFB03CC71EB0C01C1E70B4602464146CA
:101020004846BDE8F08B13B54FF000004FF00001CB
:10103000AFF30080BDE81C40704700001CB50C46B3
:10104000064B7B4469460090204600F04AFD04466A
:101050000020694600F058FD20461CBDC30A000070
:101060000FB41CB5084B06AA7B446946009005984E
:1010700000F037FD04460020694600F045FD20469B
:101080001CBC5DF814FB00009D0A00002DE9F04136
:101090000646002410687529314616A510D000F0C8
:1010A00063FA002802DA404213A507E031688A0794
:1010B00001D512A502E0490704D511A5012401E0DC
:1010C00000F05BFA00210A2206F1240709E0B0FBD8
:1010D000F2FCB0FBF2F302FB1C00303078541846EF
:1010E000491C0028F3D123462A463046BDE8F0418A
:1010F00000F075BA000000002D0000002B00000079
:10110000200000002DE9F05F894604464FF0000AF8
:10111000DFF874B1FB44C0F820A02046E16888479E
:10112000002874D0252806D0D4E901219047206AF0
:10113000401C2062F1E700265F462046E1688847B0
:101140002028054607DB312D05D2781910F8200C30
:1011500008B10643F1E7B00701D526F00406C4F84C
:101160001CA00027C4F818A02A2D09D0284611F089
:10117000F8F838B304EB8708303DC8F8185019E088
:1011800059F8041B204604EB87029161E168884707
:10119000012F054618D1E069002820DA26F0200644
:1011A0001DE0D8F8180000EB800005EB4000303857
:1011B000C8F818002046E1688847054611F0D1F8C4
:1011C0000028EED1012F0AD02E2D08D12046E1684B
:1011D00088477F1C0546022F46F02006C4DBA06925
:1011E000002803DA404246F00106A061F00701D072
:1011F00026F010066C2D0BD0682D09D04C2D39D05F
:101200006A2D35D0742D35D07A2D33D016E038E0E4
:10121000E1682F4620468847B842054609D16C2F21
:1012200026D04FF48060E168064320468847054693
:1012300004E06C2F1AD04FF4807006430DB3A5F173
:101240004100192802D8203546F400664A4629464E
:10125000204626604E46FEF7F1FF80B101280BD0F4
:10126000F61D26F0070000F1080956E74020E4E7E4
:101270008020D8E70020D6E706F104094DE728468C
:1012800052E7206ABDE8F09F78C8010010B5431C02
:1012900002E010F8011B71B18107FAD14FF0013261
:1012A00002C88C1A8C4314EAC211F9D0C01A0A067B
:1012B00003D0C01E10BDC01A10BD0A0401D0801E8C
:1012C00010BD0902FCD0401E10BD032A40F2308040
:1012D00010F0030C00F0158011F8013BBCF1020F77
:1012E000624498BF11F801CB00F8013B38BF11F8F8
:1012F000013BA2F1040298BF00F801CB38BF00F80F
:10130000013B11F0030300F02580083AC0F008808B
:1013100051F8043B083A51F804CBA0E80810F5E76F
:10132000121D5CBF51F8043B40F8043BAFF3008052
:10133000D20724BF11F8013B11F801CB48BF11F8C7
:10134000012B24BF00F8013B00F801CB48BF00F897
:10135000012B704710B5203AC0F00B80B1E818504F
:10136000203AA0E81850B1E81850A0E81850BFF48F
:10137000F5AF5FEA027C24BFB1E81850A0E818502E
:1013800044BF18C918C0BDE810405FEA827C24BF82
:1013900051F8043B40F8043B08BF7047D20728BF10
:1013A00031F8023B48BF11F8012B28BF20F8023B5F
:1013B00048BF00F8012B704702F0FF0343EA032205
:1013C00042EA024200F002B84FF000020429C0F0E5
:1013D000128010F0030C00F01B80CCF1040CBCF167
:1013E000020F18BF00F8012BA8BF20F8022BA1EBB9
:1013F0000C0100F00DB85FEAC17C24BF00F8012B9E
:1014000000F8012B48BF00F8012B70474FF0000295
:1014100000B5134694469646203922BFA0E80C50EA
:10142000A0E80C50B1F12001BFF4F7AF090728BFC5
:10143000A0E80C5048BF0CC05DF804EB890028BF41
:1014400040F8042B08BF704748BF20F8022B11F06A
:10145000804F18BF00F8012B7047704770477047E6
:1014600000487047A0B00020704770477047704731
:1014700038B504460A4600206946AFF300800028CC
:1014800008BF38BD02460099204600F06DFC0120DF
:1014900038BD012000F05CBFF8B5AFF30080054611
:1014A00000200C46102000BF0646A819A0420DD906
:1014B000324669460020AFF30080070008BF00F005
:1014C00047FF0098A04218BF0546C419FFF7C8FFA0
:1014D00005600746F01D20F007004619284600F079
:1014E0000AF8B44208BFF8BDA21B31463868BDE80F
:1014F000F84000F039BC00210160C0E901107047DC
:101500001020704710B500F02BFC006810BD10B51E
:10151000044600F025FC046010BD70B504468569E2
:101520000068C10601D5302600E02026C00707D09C
:1015300070BDD4E9012130469047206A401C2062EA
:101540006D1EF6D570BD70B5044685690078C0077C
:1015500007D170BDD4E9012120209047206A401CAA
:1015600020626D1EF6D570BD09684A0501D540B2EE
:101570007047C905FCD500B2704709684A0501D516
:10158000C0B27047C905FCD580B2704770B50C4633
:101590000546012A05D02878800600D5EA6900238F
:1015A00002E0012305E05B1C934202D2E05C0028CC
:1015B000F9D1A869E618C01AA861286A18442862F7
:1015C0002846FFF7AAFF04E0D5E9012114F8010B32
:1015D0009047B442F8D32846FFF7B5FF70BD2DE918
:1015E000F0470D4699469246044600F124080168EA
:1015F000880604D5E06921F01001216000E0012097
:10160000A84201DD471B00E00027A1697A1902EB1F
:101610000900081AA0612078C00602D42046FFF70E
:101620007CFF002608E0D4E901211AF80600904763
:10163000206A401C761C20624E45F4DB2078C006F0
:101640000AD52046FFF769FF06E0D4E901213020E2
:101650009047206A401C2062381EA7F10107F4DC85
:1016600007E0D4E9012118F805009047206A401CE2
:101670002062281EA5F10105F3DC2046FFF763FF79
:101680002078000602D50220BDE8F0870120FBE7A4
:1016900011680268006A530501D508700AE0D30595
:1016A00001D5088006E0130603D5C217C1E9000280
:1016B00000E008600120704770472DE9FF4F0C469D
:1016C0001E464FF0FF378BB0D2E90001DDF8608095
:1016D0000A908A46C1F30A5505B93D4600210846DD
:1016E0001AF0AEFFBAF1000F00F4400005DA00EB8B
:1016F00080004FF4400101EA50004FEA9059B9F1DF
:10170000010F00DDB9460A9850EA4A000ED044F6AF
:101710001050A5F2FF3545432F14B8F1000F1ED02D
:101720007542291E1EDDC9F100021CE0B8F1010F4F
:101730004FF0000001D0302103E0F24305E02154D6
:10174000401CB042FBDB30460022002121540B99A3
:10175000C1F80880C1E900200FB0BDE8F08FBD1BC3
:101760006D1CDEE74A4600DA694206A800F05EFD1D
:1017700006AB93E8070003AB83E8070050460A99DD
:1017800000F017FF8DE80700A0F500501F3800900B
:101790000398002D0ADD42F21F014A460844002347
:1017A00003A90390684601F080F909E0A0F5005014
:1017B0004A461F38002303A90390684601F08AF9BE
:1017C0008DE807000004000C03D04FF0FF30410803
:1017D00000E01046B8F1000F03D000220092154639
:1017E0001EE0751E05D400F0D9FA303262556D1E28
:1017F000F9D5B3460122084302D000227F1C04E041
:101800002078302801D100227F1E002A099784D039
:101810001DE0112D07DA00F0C1FA303262556D1C5F
:1018200050EA0102F5D1084302D00098C8B10EE099
:101830000021681E05E0235C625C63542254401E54
:10184000491C8142F7DBAB46A81B401E09900020D3
:1018500004F80B000B98099AC0F80880C0E9002B27
:101860007AE711264FF0000857E72DE9F04F884638
:101870000446D21D22F0070191B0D1E90001CDE963
:101880000A010EF085FD02460B98C00F01D02D20F5
:1018900007E02068810701D52B2002E0202101EA22
:1018A000C000032A099001D0072A05DB0346414600
:1018B000204600F04FFC0BE12078800601D5E0695E
:1018C00000E00620B8F1650F814606D0B8F1660F3A
:1018D00018D0B8F1670F70D131E00020B9F1110FC5
:1018E000009001DB112301E009F101030AAA01A91B
:1018F0000CA8FFF7E2FEDDE90C70002609F10105F6
:10190000834647E001204B4600904FF000470AAA6B
:1019100001A90CA8FFF7D1FEDDE90DB00C995D46D9
:10192000002610B909F101000D18B9EB050003D428
:10193000C0F1FF3609F10105A5EB09002BE0B9F173
:10194000010F01DA4FF001090020B9F1110F0090E9
:10195000484601DD112300E003460AAA01A90CA8AC
:10196000FFF7ABFEDDE90C704D460026834620787C
:1019700000070AD4AB4500DA5D4601A8012D04DD5D
:10198000411911F8011C302907D04F4502DA17F12F
:10199000040F04DA012082460FE06D1EEEE7002FEF
:1019A00002DCED1B3E4403E0781CA84200DD7D1CF8
:1019B000B81B00F1010A4FF000472078000703D45C
:1019C000AA4501DB4FF0FF3A0021B7F1004F0DF1BE
:1019D00043088DF8431024D002202B23002F01DA76
:1019E0007F422D230A21021EA0F1010000DC5FB11D
:1019F00097FBF1FC97FBF1F201FB1C7C17460CF105
:101A0000300C08F801CDEEE7A8F101000370218841
:101A1000090501D5452100E06521A0F1010800F884
:101A2000011C09980FA9A1EB0807FF1D00B10120B7
:101A3000411901EBEA70A1693844081A401EA061FF
:101A40002078C00602D42046FFF767FD099828B128
:101A5000D4E901219047206A401C20622078C0060A
:101A600022D52046FFF759FD1EE0002E04DBB345CA
:101A700002DD01A8805D00E03020D4E9012190471B
:101A8000206A401C2062761CAAF101005FEA000A6D
:101A90000AD100F061F9C0680168405CD4E9012115
:101AA0009047206A401C2062281EA5F10105DCDC5D
:101AB00007E0D4E9012118F8010B9047206A401C87
:101AC0002062381EA7F10107F3DC2046FFF73BFD3B
:101AD000032011B041E6000001694A1C0261087848
:101AE000704700B58FB0CDE901310021059105495E
:101AF0007944CDE9031011466846FFF703FB0FB0A8
:101B000000BD0000E5FFFFFF0A6802F8010B0A6054
:101B1000704700002DE9FF5F15468A460446DFF84E
:101B2000AC80F8440027D8E900103E46CDE900100B
:101B300010E03AF816106A4602A800F0E9FB411CD2
:101B400007D02178890603D5E269391891420DD86A
:101B50000744761C2078800602D5E069B84205DD8E
:101B6000AE42E6DB3AF816000028E2D1A069C01BBD
:101B7000A0612046FFF7D1FCD8E90010CDE90010A4
:101B8000002017E03AF818106A4602A800F0C0FBDF
:101B9000B0F1FF3F81460BD000250DF1080B05E0A9
:101BA000D4E901211BF8050090476D1C4D45F7D382
:101BB00008F10100B0428046E4DB206A384420622C
:101BC0002046FFF7C0FCBDE8FF9F0000A2BF010058
:101BD0002DE9F0418046D21D22F007020025D2E90E
:101BE0000002F52915A614D0011E72F1000106DAD3
:101BF0000023D0EB030063EB020211A608E0D8F843
:101C000000108B0701D50FA602E0490701D50EA6EB
:101C100001251146002408F1240704E000F0BEF875
:101C200030323A55641C50EA0102F7D12B46324655
:101C300021464046BDE8F041FFF7D1BC000000005E
:101C40002D0000002B0000002000000030B4002117
:101C500000F1240408E002F00705D208303542EA1A
:101C60004372DB086554491C52EA0305F3D104684A
:101C7000002310A2250707D5A40600D421B1C4690A
:101C800001230DA2641EC46130BCFFF7A8BC10B5CF
:101C9000044621461068FFF770FC02462046BDE866
:101CA00010400023D2E7D21D22F00701D1E9002322
:101CB000CCE700000000000030000000F0B40D464A
:101CC0000188090502D5214C7C4402E01F4C7C446C
:101CD0000E34002100F1240608E002F00F0712097B
:101CE000E75D42EA03721B097754491C52EA030775
:101CF000F3D102780023120704D5702D06D009B164
:101D0000022311342246F0BCFFF769BC01231034D2
:101D1000F8E770B504460D4621461068FFF72DFC24
:101D2000024629462046BDE870400023C6E7D21D82
:101D300022F00703D3E90023C0E70368126843F0E9
:101D4000200303600823C3610023B7E704BE01003A
:101D50000048704798B0002000487047B8B0002095
:101D60000048704798B00020034640688C46002821
:101D700018BF88423CBF03464068F8D3186818442F
:101D8000884207D00CF1030020F00700001D411A23
:101D9000521A0146081D0A60FFF7B1B830B5B0F11C
:101DA0000A024FEA900E71F100034EEA817EB0EB19
:101DB0000E0061EB91014FEA101E4EEA017E10EB1E
:101DC0000E0041EB11114FEA102E4EEA016E10EB9E
:101DD0000E0041EB11214FEA104E4EEA014E10EB7E
:101DE0000E0041EB1141401841F100014FEAD000D3
:101DF00040EA41704FEAD10110EB80054FEA8104BF
:101E000044EA907444EB01046D1944EB0404521B42
:101E1000A3414FF0000348BF0A3200D530BD401C3B
:101E200041F1000130BD00001FB584B000200A9CC4
:101E300006AB04AA02A90094AFF3008018B1DDE953
:101E4000020108B010BD0348204000F0C5FA002090
:101E50000146F6E70000207C2DE9F04F04460D46D0
:101E6000D21D22F0070089B0D0E9009748463946D4
:101E70000EF08EFA0246F80F01D02D2307E02068FD
:101E8000810701D52B2302E0202101EAC0038DF850
:101E900020300BB1012000E00020032A824601D04F
:101EA000072A04DB2946204600F054F93FE1207858
:101EB000800601D40D2500E0E569C7F30A560D2D13
:101EC00049DA00214FEA175B08461AF0B9FB002FE8
:101ED00000F4400007DA00EB80004FF4400100EB13
:101EE000D07001EA60008115012901DD4FF0FF315A
:101EF00000224FEA850CBCF1180F06D31346ACF153
:101F000018004FF08052C24003E04FF4801323FAD0
:101F10000CF30CF10C0CBCF1200F04D3ACF1200C31
:101F200009FA0CF001E007FA0CF000294FF0004824
:101F300001DD18B90FE00ED140450CD319EB0209B1
:101F40005F4121B9404502D19F4329EA0209BBEB19
:101F5000175F00D0761C2088000502D57B487844A6
:101F600002E07A487844193808AA302302F80A3087
:101F7000037C0AF10101002E0AF1020A53546A4659
:101F800002DC4FF0300101E04FF031014FF0010869
:101F90008DF8001002D0A6F2FF3603E059EA47019F
:101FA00000D06B4E002D02DC2178090704D54FF0DC
:101FB00002082E218DF80110C44600210BE0C7F362
:101FC00003433F01C35C491C6D1E02F8083005291C
:101FD00008F1010801DA002DF1DC00210CE000EB32
:101FE0001973491C1B786D1E082902F808304FEA46
:101FF000091908F1010801DA002DF0DC21688B06CF
:1020000002D516E0A8F10108E04505DD02EB080362
:1020100013F8013C302BF5D0B8F1000F09DD02EBCD
:10202000080313F8013C2E2B03D1090701D4A8F1B2
:102030000108002D05DD3E2102F808106D1E08F193
:102040000108407C002E02F8080008F1010804DABB
:102050002D20764202F8080002E02B2002F808004A
:102060000A214FF47A70864208F101080BDB96FBD7
:10207000F0F3303302F8083096FBF0F308F1010872
:1020800000FB136601E0642E0CDB642096FBF0F38A
:10209000303302F8083096FBF0F308F1010800FB3A
:1020A000136601E00A2E06DB96FBF1F0303002F8F1
:1020B000080008F1010896FBF1F001FB10603030D8
:1020C00002F80800A16908F1010808EB050202EB1B
:1020D0000A00081AA0612078C00602D42046FFF743
:1020E0001CFA216A08AE01EB0A00206204E0D4E980
:1020F000012116F8010B9047BAF1010AF7D22078B6
:10210000C00602D52046FFF708FA6E4609E016F829
:10211000010B3E280FD0D4E901219047206A401CD2
:102120002062B8F10108F2D22046FFF70CFA09B09C
:102130000320BDE8F08F206A2844206203E0D4E940
:102140000121302090476D1EEBD3F8E7D1BC010090
:1021500002FCFFFF2DE9F0411F46044603260168FB
:10216000072A01F4006004DB08B116A505E016A5F6
:1021700003E008B115A500E015A521F010002060CE
:10218000A069C01EA0610FB1401EA0612046FFF7EC
:10219000C4F94FB1D4E9012138469047206A401C68
:1021A0002062C01C206206E0206AFAE7D4E901211F
:1021B00015F8010B9047761EF8D22046FFF7C3F9B9
:1021C000BDE8F0814E414E006E616E00494E460002
:1021D000696E660010B5436913B1AFF3008001E08A
:1021E000FFF7D4F9012010BD127800F124010A7024
:1021F00000224A700122EDE711684FF0FF32E9E753
:1022000010B5436913B1AFF3008001E0FFF782FC22
:10221000012010BD128800F1240182840022C284B2
:102220000122EDE711684FF0FF32E9E72DE9F047B1
:10223000814616468AB0354878440DC88DE80D00B1
:1022400032487844801C03AC0DC884E80D0041F688
:102250009B300844372190FBF1F290FBF1F5A5F19A
:10226000800501FB12041B3C02D56442012000E002
:102270000020DFF898A080460027FA44AAF1BE0AA1
:102280000EE0E0070AD03246684607EB470101231B
:102290000AEB810100F01EFC8DE8070064107F1C32
:1022A000002CEED1194F7F44AE3F19E0E80715D05E
:1022B00007EB04100DF1180A90E80E008AE80E00F2
:1022C000C068F04201D1981908903246012306A94E
:1022D00003A800F0FFFB03AB83E807006D10641C4C
:1022E000002DE3D14FF0010332466946B8F1000FEB
:1022F00003A802D000F0D9FB01E000F0EBFBC9E934
:102300000001C9F808200AB0BDE8F08788BA0100CA
:1023100070B516460C46054600F048F8036893F879
:102320000101012806D0FF2C0FD8185D68B10120EB
:102330002C7070BDD3F807013246214603F2071313
:1023400003442846BDE8704018474FF0FF3070BD89
:1023500010B500F049F8BDE8104000F038B87047FB
:102360007546FFF7F5FCAE4605006946534620F07A
:102370000700854618B020B5FEF73EF8BDE82040BE
:102380004FF000064FF000074FF000084FF0000B31
:1023900021F00701AC46ACE8C009ACE8C009ACE8E4
:1023A000C009ACE8C0098D467047000010B5FFF7C2
:1023B000D3FC001D10BD00BF1D89010010B50446EF
:1023C000AFF300802046BDE81040FDF7A0BF002815
:1023D00001D000F071B8704710B500F08DF8BDE87D
:1023E0001040FFF7F4BF000010B5012805D0002110
:1023F00003A000F067F8012010BD09A1F8E7000074
:1024000053494752544D454D3A204F7574206F66DD
:102410002068656170206D656D6F72790000000045
:102420003A2048656170206D656D6F727920636F29
:1024300072727570746564004FF0013C50F8042BA3
:1024400051F8043B9A4221D1A2EB0C03934313EAC7
:10245000CC1317D150F8042B51F8043B9A4215D1F4
:10246000A2EB0C03934313EACC130BD150F8042BCB
:1024700051F8043B9A4209D1A2EB0C03934313EAAF
:10248000CC13DBD04FF00000704700BFD01A01BA68
:10249000B1FA81F101F0180122FA01F0CB40C1F14B
:1024A0002001DBB2C0B2C01A2CFA01F3D11A914359
:1024B00011EAC311E6D1704701491820ABBEFEE70F
:1024C0002600020070B505460C460A2000E06D1C8F
:1024D00000F068F835B128780028F8D102E0641CD3
:1024E00000F060F814B120780028F8D1BDE8704001
:1024F0000A2000F057B8000010B5022803D04101AF
:1025000003D50DA112E0002010BD010101D50FA1DE
:102510000CE0C10001D511A108E0810001D512A194
:1025200004E0400001D513A100E0002115A0FFF751
:10253000C9FF012010BD0000496E76616C696420FE
:102540004F7065726174696F6E000000446976694E
:102550006465204279205A65726F00004F7665727B
:10256000666C6F7700000000556E646572666C6F74
:1025700077000000496E6578616374205265737559
:102580006C7400005349474650453A2041726974C3
:10259000686D6574696320657863657074696F6ED2
:1025A0003A20000008B569468DF800000320ABBE54
:1025B00008BD5FEA400C08BF91F0000F4FEA8C2382
:1025C0004FEAC12243EA51514FEA1C5018BF00F5AF
:1025D000F0404FEA300018BF41F000415FEA6C5C08
:1025E00000F02980BCF1FF3F08BF40F080407047F9
:1025F000130C06BF12044FF0100C4FF0000C130E1A
:1026000004BF12020CF1080C130F04BF12010CF1ED
:10261000040C930F04BF92000CF1020CD30F04BF03
:1026200052000CF1010C11464FF00002A0F11F0006
:10263000A0EB0C00704711F0004F08BF704731F05D
:1026400000413FF4D5AF0B0C06BF09044FF0100C4E
:102650004FF0000C0B0E04BF09020CF1080C0B0F1D
:1026600004BF09010CF1040C8B0F04BF89000CF1AD
:10267000020CCB0F04BF49000CF1010CCCF120037C
:10268000A0EB0C0022FA03F302FA0CF241EA030178
:1026900000F10100704720F07F4C80EA030023F036
:1026A0007F47ACEB070303F57C5300F0004003F1D8
:1026B000FF032DE980494FEA154B09B44FEA144353
:1026C00025EA0B4E24EA03480FF2042606EB1327F3
:1026D00049083E785FEA320203FB0667C7F5000748
:1026E00007FB06F64FEA54374FEAD64606F10206D4
:1026F00007FB066CCCF1005C4FEA1C472CEA074C48
:1027000007FB06F40CFB06F504EB15464FEA96169C
:1027100034BF00204FF000404FEAD13706FB07FCE2
:102720004FEA1C4C0CFB0BF7D21B03FB0CF761EBC5
:1027300007010CFB0EF7B0EB074072EB17420CFBE6
:1027400008F734BFA2EB0742B2EB074261EB174137
:102750004FEA0C444FEA910706FB07FC4FEA1C4C7A
:102760000CFB0BF7B0EBC74072EB573203FB0CF7D7
:1027700034BFA2EBC742B2EBC74261EB57310CFB4F
:102780000EF7B0EBC70072EB57720CFB08F734BFC3
:10279000A2EBC702B2EBC70261EB5771039F4FEA8E
:1027A000816141EA921104EBCC044FEAD1374FEA40
:1027B000826206FB07FC42EA90124FEA80604FEA11
:1027C0001C4C0CFB0BF7D21B03FB0CF761EB070156
:1027D0000CFB0EF7B0EB074072EB17420CFB08F74F
:1027E00034BFA2EB0742B2EB074261EB17414FEA5D
:1027F0008C554FEA910704EB9C2406FB07FC4FEA3B
:102800001C4C0CFB0BF7B0EBC74072EB573203FBD1
:102810000CF734BFA2EBC742B2EBC74261EB5731B2
:102820000CFB0EF7B0EBC70072EB57720CFB08F70E
:1028300034BFA2EBC702B2EBC70261EB577115EBD5
:102840004C254FEA816141EA92114FEA82624FEAD8
:10285000D13742EA901206FB07FC44F100044FEA2C
:1028600080604FEA1C4C0CFB0BF7D21B03FB0CF7F0
:1028700061EB07010CFB0EF7B0EB074072EB174260
:102880000CFB08F734BFA2EB0742B2EB074261EB47
:10289000174115EB1C154FEA813141EA92414FEA8D
:1028A000823242EA90424FEA80304FEA0C7644F19D
:1028B000000448EA03434EEA0B484FF0000EB2EB27
:1028C000080C71EB030724BF624639464EEB0E0E2F
:1028D0004FF0000B0018524149414BEB0B0BB2EB90
:1028E000080C71EB03077BF1000B24BF62463946ED
:1028F0004EEB0E0E4FF0000B0018524149414BEBCE
:102900000B0BB2EB080C71EB03077BF1000B24BF40
:10291000624639464EEB0E0E51EA020718BF46F0EA
:10292000010616EB0E7655F1000254F1000103D5B5
:10293000BDE88901BDE80088BDE88901BDE800481F
:10294000B619524141EB0101A3F1010370478080A8
:102950007F7E7D7C7B7A79787776767574737271F9
:1029600071706F6E6E6D6C6C6B6A6A6968686766B1
:1029700066656464636362616160605F5F5E5E5D43
:102980005D5C5C5B5B5A5A595958585757565655B7
:1029900055555454535352525251515050504F4F19
:1029A0004F4E4E4D4D4D4C4C4C4B4B4B4A4A4A4969
:1029B00049494848484747474746464645454544AC
:1029C0004444444343434342424242414141002B39
:1029D0009C4630D477002BD01CB54FEA370703B4A0
:1029E0004FF010004FF01001BAF1000F06D0BCF10B
:1029F000000FDCBF40F0080040F0080119F020FE95
:102A00000FBCBDE810400BF1010BBBF1010F08BF7B
:102A10005FEA170722BF12F1010211F101014FF025
:102A2000004143F1000300F0004043EA000070471A
:102A3000F9D35708D0E746EA064613F1400F4FEAAC
:102A400016461FDD13F1200FDFBF16430A46002193
:102A500020335B42BED0C3F1200746EA064602FAA5
:102A600007F74FEA164646EA0706C3F1200722FA9F
:102A700003F201FA07F721FA03F14FF0000342EAEB
:102A80000702A7E746EA020646EA06464FEA164666
:102A900046EA0106BCBF46EA0646360C4FF0000384
:102AA0004FF000024FF0000194E72DE9804C9A4668
:102AB000934670B491E8380007C831EA400C48BF2B
:102AC00034EA430C03D5FFF7E6FDFFF780FFF0BCC7
:102AD000BDE8008C2DE9804C9A46934670B491E88D
:102AE000380007C810F0804F08BF13F0804F03D1A3
:102AF00000F005F8FFF76BFFF0BCBDE8008C20F09C
:102B00007F4780EA030023F07F4C07EB0C03A3F51B
:102B10007C5300F00040A3F1FE0392F0000F00F0A0
:102B2000B38095F0000F00F077802DE901494FEA5E
:102B300011404FEA144621EA004800FB06FC24EA53
:102B4000064708FB06F607FB08F800FB07F718EB3B
:102B500006484CEB164C4FEA124B18EB07484FEA6D
:102B600015464CEB174022EA0B4E0BFB06FC25EA00
:102B700006470EFB06F607FB0EFE0BFB07F71EEBE8
:102B8000064E4CEB164C4FF000061EEB074E4CEB7E
:102B9000174B18EB0B0840F1000018EB0E0B58EB2D
:102BA000000840F100008F1A4FF000013CBFC943FC
:102BB000661B14BFB5EB040C00213CBFC943F61BD8
:102BC0004FEA17444EEA8E0E27EA04454FEA1C47A7
:102BD00004FB07622CEA074C05FB07F70CFB05F624
:102BE00004FB0CFC16EB074642EB174216EB0C46B7
:102BF00042EB1C421BEB060658EB0202414146EA3F
:102C00009E0601D5BDE80189B619524141EB01018B
:102C1000A3F10103BDE801894FEA14454FEA1147CA
:102C200024EA054621EA074C05FB07F406FB07F7F3
:102C30000CFB06F105FB0CFC11EB074144EB1744C0
:102C40004FEA124711EB0C4144EB1C4422EA074CBB
:102C500005FB07F206FB07F70CFB06F605FB0CFC71
:102C600016EB074642EB174216EB0C4642EB1C45AF
:102C70006A1854F1000148BF7047B619524141EB40
:102C80000101A3F10103704795F0000F37D04FEA1F
:102C900011424FEA144721EA024624EA074C02FB9C
:102CA00007F106FB07F70CFB06F402FB0CFC14EB28
:102CB000074441EB17414FEA154714EB0C4441EB35
:102CC0001C4125EA074C02FB07F506FB07F70CFB46
:102CD00006F602FB0CFC16EB074645EB174516EB18
:102CE0000C4645EB1C42121951F1000148BF7047D8
:102CF000B619524141EB0101A3F1010370474FEABC
:102D000014454FEA114724EA054621EA074C05FB22
:102D100007F106FB07F70CFB06F24FF0000605FB78
:102D20000CFC12EB074241EB174112EB0C4251EB4A
:102D30001C4148BF7047921841EB0101A3F1010308
:102D40007047000055494A6822F440324A604A6898
:102D500043681A434A600268526822F4807203682A
:102D60005A6002685368026943EA022203685A60A3
:102D70000268526822F0407203685A600268526822
:102D800083681A4303685A600268926822F40062FA
:102D900003689A6002689268C3681A4303689A607D
:102DA0003F4B826A9A4218D00268926822F07062A1
:102DB00003689A6002689268836A1A4303689A609B
:102DC0000268926822F0405203689A600268926832
:102DD000C36A1A4303689A600BE00268926822F0A3
:102DE000706203689A600268926822F04052036839
:102DF0009A600268926822F0020203689A60026890
:102E00009368027E43EA420203689A602022125CC1
:102E1000A2B10268526842F4006203685A60026814
:102E2000526822F4604203685A6002685368426A3A
:102E3000521E43EA423203685A6005E00268526853
:102E400022F4006203685A600268D26A22F47002B7
:102E50000368DA620268D36A828B521E43EA025226
:102E60000368DA620268926822F4007203689A606A
:102E70000268936890F8302043EA422203689A601F
:102E80000268926822F4806203689A60026893681C
:102E9000426943EA822203689A6070470023014036
:102EA0000100000F10B501221021024802F060FE5F
:102EB00010BD00000000024010B5002210210248A1
:102EC00002F056FE10BD00000000024010B50122C5
:102ED0001146024802F04CFE10BD00000004024002
:102EE00010B500220121024802F042FE10BD000090
:102EF0000004024010B50446FFF7DEFF922000F008
:102F0000A5F906229549122000F080F9FFF7CAFFC3
:102F100092484078000200B29049097808439049ED
:102F200008800846B0F9000000EE100AB8EEC00AAA
:102F30008C48D0ED000A20EE200AD4ED080A20EEDD
:102F4000200A84ED000A8548C078000200B2834957
:102F500089780843824908800846B0F9000000EEED
:102F6000100AB8EEC00A7F48D0ED000A20EE200A11
:102F7000D4ED080A20EE200A84ED010A7748407952
:102F8000000200B27549097908437549088008466E
:102F9000B0F9000000EE100AB8EEC00A7148D0ED9A
:102FA000000A20EE200AD4ED080A20EE200A84ED63
:102FB000020AFFF795FF08226849002000F026F971
:102FC000FFF784FF654800780F284FD166480078E6
:102FD000F0B36248C078000200B2604989780843C3
:102FE0005F49088094ED090A0846B0F9000000EE38
:102FF000900AF8EEE00A5D4890ED001A10EE810AA2
:1030000084ED030A55484079000200B2534909791A
:1030100008435349088094ED0A0A0846B0F90000B5
:1030200000EE900AF8EEE00A504890ED001A10EE1B
:10303000810A84ED040A4948C079000200B2474978
:10304000897908434649088094ED0B0A084600E058
:103050000DE0B0F9000000EE900AF8EEE00A4348F7
:1030600090ED001A10EE810A84ED050A44E03B4819
:10307000C078000200B2394989780843384908808D
:103080000846B0F9000000EE100AB8EEC00A374852
:10309000D0ED000A20EE200A84ED030A2F48407983
:1030A000000200B22D49097908432D4908800846DD
:1030B000B0F9000000EE100AB8EEC00A2B48D0EDBF
:1030C000000A20EE200A84ED040A2448C079000298
:1030D00000B2224989790843214908800846B0F99D
:1030E000000000EE100AB8EEC00A2048D0ED000A39
:1030F00020EE200A84ED050AFFF7DEFEA22000F094
:10310000A5F802221549222000F080F8FFF7CAFE38
:1031100012480078C0001149497840EA611010490E
:1031200008800846B0F90000B0F5806F05DB08465E
:103130000088A0F5006000B208800948B0F90000DE
:1031400000EE100AF8EEC00AB4EE001AB3EE070A59
:1031500000EE810A84ED070A10BD00008A040020F9
:10316000920400204C0400205C0400205004002045
:1031700070B504460D461C48046000201B490870C9
:103180000FF06AF9194909780843184908700FF0D7
:1031900019FA164909780843144908701DB11448F2
:1031A00000F024FA1CE09FED130A114880ED090A93
:1031B0009FED110A80ED0A0A9FED100A80ED0B0ABF
:1031C0009FED0F0A80ED0C0A90ED0C0ADFED0D0A61
:1031D00080EE801A80ED081A9FED0B0A80ED060A3A
:1031E0000248007870BD00009404002056040020BE
:1031F00008AB00207C1D8D3A14A5C73BE5F2073BC8
:10320000B4641B41C3F51C410000204270B5064662
:103210000C46154646F0800000F018F806E05520F0
:1032200000F014F82070641C681EC5B2002DF6D1A1
:1032300070BD70B504460D4644F0800000F006F8FD
:10324000552000F003F8287070BD000001B582B071
:103250004FF47A70012301AA02A900900348006884
:1032600004F076FB9DF804000EBD000094040020DD
:1032700070B505460C462846FFF7E8FF2046FFF7E5
:10328000E5FF70BDD2ED020A92ED021AB6EE000A19
:1032900000EEC10AD2ED030A92ED031A00EEC10A54
:1032A000D0ED000A20EE200AD2ED010A92ED021ABA
:1032B00060EE810A92ED001AD2ED031A41EE610A26
:1032C00090ED011A00EE810AD2ED010A92ED031A87
:1032D00060EE810A92ED001AD2ED021A41EE210A47
:1032E00090ED021A00EE810AF0EE000A20EE200AAC
:1032F00081ED000A92ED010AD2ED020A20EE200AC9
:10330000D2ED000A92ED031A00EE810AD0ED000A18
:1033100060EE200A92ED011AD2ED011AB6EE000A13
:1033200001EE610AD2ED031A92ED032AB0EE401AC3
:1033300001EEC21AD0ED011AB0EE600A01EE210AC8
:10334000D2ED020A92ED031A60EE810A92ED001AA4
:10335000D2ED011A41EE610A90ED021A00EE810AE7
:10336000F0EE000A20EE200A81ED010A92ED010A3A
:10337000D2ED030A20EE200AD2ED000A92ED021AE5
:1033800000EEC10AD0ED000A20EE200AD2ED020ABA
:1033900092ED031A60EE810A92ED001AD2ED011A45
:1033A00041EE210A90ED011A00EE810A92ED011A18
:1033B000D2ED011AF6EE000A41EE610A92ED021A10
:1033C000D2ED021A41EE610A90ED021A00EE810A76
:1033D000F0EE000A20EE200A81ED020A704700BFDD
:1033E000FEE7000010B5024801F07BFC10BD0000B4
:1033F000C809002010B5024801F073FC10BD0000A0
:10340000F009002038B504464FF4047008490860FC
:1034100000208860C86008200861200A05490870FB
:103420004C706B460A460249034801F05EFA38BD0B
:103430000C980020D4020020F0090020F8B50746BF
:103440000C4615461E464FF400700D4908600020DA
:103450008860C86008200861380A0A4908704F70FF
:10346000200A8870CC70280A08714D71300A887162
:10347000CE716B460A460249034801F036FAF8BDA0
:10348000DC970020BC020020C8090020F8B50746E0
:103490000C4615461E4640F2FF100D4908600020FC
:1034A0008860C86008200861380A0A4908704F70AF
:1034B000200A8870CC70280A08714D71300A887112
:1034C000CE716B460A460249034801F00EFAF8BD78
:1034D000C4970020B4020020C8090020F8B50746B0
:1034E0000C4615461E464FF400700D49086000203A
:1034F0008860C86008200861380A0A4908704F705F
:10350000200A8870CC70280A08714D71300A8871C1
:10351000CE716B460A460249034801F0E6F9F8BD50
:10352000F4970020C4020020F00900200346042B79
:1035300015D007DC7BB1012B0ED0022B0DD0032B55
:1035400012D10BE0202B0BD0212B0AD0222B09D03B
:10355000232B09D107E008E007E006E005E004E0DE
:1035600003E002E001E000E000BF00BF0020704780
:103570000020704710B50022044905480AF0ABFF4F
:10358000044903480AF0A0FF002010BD00270020D6
:103590005C160020001F002070B504460D46214631
:1035A00003480AF091FF02480AF06AFF002070BD4C
:1035B0005C1600202DE9F04104460D4600260A481D
:1035C000D0F89072D7F8140210B10120BDE8F08154
:1035D0002A46214604480AF07EFF03480AF0FFFF0E
:1035E00006463046F2E700005C16002070B52DED6F
:1035F000048B88B0044600200690079000F03CFD44
:10360000FE4880ED000A00BF00F036FDFB48D0ED1B
:10361000000A30EE600AF2EE040AB4EEE00AF1EEBF
:1036200010FA14DD9FEDF60A84ED090A9FEDF50A04
:1036300084ED0A0A9FEDF40A84ED0B0A9FEDF30A6C
:1036400084ED0C0A9FEDF20A84ED060A57E29FED25
:10365000F10A00F0CDFC9FEDF00A84ED0C0A9FED1D
:10366000EE0A84ED090A9FEDEC0A84ED0A0A9FED4B
:10367000EA0A84ED0B0A002673E1FFF71DFC922095
:10368000FFF7E4FD062206A91220FFF7BFFDFFF7B2
:1036900009FC9DF81900000200B29DF8181040EADC
:1036A000010500EE105AB8EEC00ADC48D0ED000A61
:1036B00020EE200A84ED000A9DF81B00000200B2F3
:1036C0009DF81A1040EA010500EE105AB8EEC00A43
:1036D000D248D0ED000A20EE200A84ED010A9DF8C0
:1036E0001D00000200B29DF81C1040EA010500EE2A
:1036F000105AB8EEC00AC948D0ED000A20EE200AE0
:1037000084ED020AD4ED000A60EEA00A94ED011ADD
:10371000D4ED011A41EE210A94ED021AD4ED021AF9
:1037200041EE210AB0EE600A0EF09FF9B0EE408A39
:1037300094ED0C0A30EE080A84ED0C0AFFF7D0FB7A
:10374000082206A90020FFF761FDFFF7BFFB9DF8E7
:1037500018000F2850D19DF81B00000200B29DF800
:103760001A1040EA010500EE105AB8EEC00AAC4843
:10377000D0ED000A20EE200A84ED030A94ED090A38
:10378000D4ED030A30EE200A84ED090A9DF81D00ED
:10379000000200B29DF81C1040EA010500EE105A2C
:1037A000B8EEC00A9E48D0ED000A20EE200A84ED53
:1037B000040A94ED0A0AD4ED040A30EE200A84EDDE
:1037C0000A0A9DF81F00000200B29DF81E1040EA90
:1037D000010500EE105AB8EEC00A9148D0ED000A7B
:1037E00020EE200A84ED050A94ED0B0AD4ED050ABB
:1037F00030EE200A84ED0B0A06BBF0EE488AB0EEEC
:10380000489A002017E004F10C0101EB800191EDD2
:10381000000A03A901EB800181ED000A04F10C010B
:1038200001EB800191ED000A694601EB800181ED19
:10383000000A411CC8B20328E5DB49E0B4EEE88A7F
:10384000F1EE10FA01DDF0EE488AB4EEC98AF1EE2D
:1038500010FA01D2B0EE489A002037E004F10C01D2
:1038600001EB800191ED000A03A901EB8001D1ED8C
:10387000000AB4EEE00AF1EE10FA0ADD04F10C01E0
:1038800001EB800191ED000A03A901EB800181EDBC
:10389000000A04F10C0101EB800191ED000A694678
:1038A00001EB8001D1ED000AB4EEE00AF1EE10FA6E
:1038B0000AD204F10C0101EB800191ED000A694686
:1038C00001EB800181ED000A411CC8B20328C5DB71
:1038D00038EEC90A534880ED000A002012E003A91F
:1038E00001EB800191ED000A694601EB8001D1ED09
:1038F000000A30EE600A4C4901EB800181ED000ABC
:10390000411CC8B20328EADB464890ED000AF6EEF7
:10391000000AB4EEE00AF1EE10FA1BDC424890ED2A
:10392000000ADFED420AB4EEE00AF1EE10FA11DC13
:1039300090ED010ADFED3D0AB4EEE00AF1EE10FA77
:1039400008DC90ED020ADFED390AB4EEE00AF1EE90
:1039500010FA00DD0AE09FED360A00F049FB701C0A
:1039600086B2344800888642FFF687AE00BFD4EDA9
:103970000C0A3048008800EE100AB8EE400A80EECB
:10398000801A84ED0C1A002015E004F1240101EBEB
:103990008001D1ED000A2749098800EE101AB8EE1F
:1039A000400A80EE801A04F1240101EB800181EDD0
:1039B000001A411CC8B20328E7DBFFF77DFAA220FA
:1039C000FFF744FC022206A92220FFF71FFCFFF7A5
:1039D00069FA9DF81800C0009DF8191040EA6115B9
:1039E000B5F5806F02DBA5F5006005B200EE105A58
:1039F000F8EEC00AB4EE001A1EE0000084040020B5
:103A00007C1D8D3A14A5C73BE5F2073BB4641B410E
:103A1000000020420AD7A33B000000004C04002015
:103A20005004002058040020FCAA00209A99193E56
:103A30006F12033A88040020B3EE070A00EE810AF1
:103A400084ED060A34480088401C00B232490880E0
:103A5000324890ED000AF6EE000AB4EEE00AF1EE0C
:103A600010FA3FF7D1AD94ED0C0ADFED2D0A30EEE0
:103A7000600AB0EEC00AF6EE000AB4EEE00AF1EE1B
:103A800010FAEEDC274890ED000A5FED180AB4EE5C
:103A9000E00AF1EE10FAE4DC90ED010A5FED1D0A98
:103AA000B4EEE00AF1EE10FADBDC90ED020A5FED15
:103AB000210AB4EEE00AF1EE10FAD2DC94ED090A24
:103AC000B0EEC00ADFED180AB4EEE00AF1EE10FA2B
:103AD000C7DC94ED0A0AB0EEC00ADFED130AB4EEBB
:103AE000E00AF1EE10FABCDC94ED0B0AB0EEC00A6D
:103AF000DFED0D0AB4EEE00AF1EE10FAB1DC00BF22
:103B000094ED0C0ADFED090A80EE801A84ED081AA4
:103B100008B0BDEC048B70BD5E040020580400208A
:103B2000CDCC1C41FCAA00200AD7233CC3F51C4184
:103B30002DE9F04FDDE90DC8DDF83C90DDE90B47DC
:103B4000DDE909564FF0000A07E011F80AB0CAF1A2
:103B5000020E00F80EB00AF1010ABAF1030F04DAFE
:103B600011F80AB0BBF1000FEFD190F803B02BF0C1
:103B7000380B0BF1380B80F803B090F803B062F308
:103B8000020B80F803B0B0F803B063F3891BA0F810
:103B900003B090F804B065F3850B80F804B0B0F87A
:103BA00007B067F3090BA0F807B0B0F808B06CF3E2
:103BB0008C0BA0F808B0B0F809B068F34F1BA0F860
:103BC00009B0B0F804B066F38E1BA0F804B0B0F8EA
:103BD00005B064F3CF1BA0F805B04FF0000A09E070
:103BE00099F800B000F10F0E0EF80AB009F10109C2
:103BF0000AF1010AA245F3D3BDE8F08F0FB430B546
:103C000091B04FF6FF700490302214A905A8FDF77B
:103C1000A1FB02ADA5208DF808003320ADF8090006
:103C20005D4800788DF80B00FF220421284600F043
:103C3000C7FB8DF80C0040F20130ADF80D004FF4D9
:103C40008870ADF8000011F025F9ADF8020011F010
:103C500021F965282ED007DC072849D2DFE800F0DB
:103C6000480C11161B2025006638052840D2DFE8D5
:103C700000F0262B30353A0040F20110ADF8040078
:103C80003EE04FF48170ADF8040039E040F20310DB
:103C9000ADF8040034E04FF48270ADF804002FE07A
:103CA00040F20510ADF804002AE04FF48370ADF83F
:103CB000040025E040F26510ADF8040020E04FF468
:103CC000B370ADF804001BE040F26710ADF80400DB
:103CD00016E04FF4B470ADF8040011E040F2691042
:103CE000ADF804000CE04FF4B570ADF8040007E047
:103CF00040F26510ADF804006520ADF8020000BF89
:103D000000BF02ADBDF810200721284600F03EFBA1
:103D100004906D46BDF810200621284600F036FBC1
:103D2000049005ADBDF810202D21284600F02EFB93
:103D3000049002AD002404E0287809F0F7F86D1C27
:103D4000641C072CF8D36D46002404E0287809F0A1
:103D5000EDF86D1C641C062CF8D305AD002404E0BE
:103D6000287809F0E3F86D1C641C2D2CF8D304AD01
:103D7000002404E0287809F0D9F86D1C641C022C9A
:103D8000F8D305480078401C03490870002011B0A2
:103D900030BC5DF814FB0000AC0300202DE9F047B7
:103DA0000C4608AD95E8E010DDF83080002106E013
:103DB00014F80190C1F1020A00F80A90491C032985
:103DC00004DA14F80190B9F1000FF1D190F80390E2
:103DD00029F0380909F1100980F8039090F8039050
:103DE00062F3020980F80390B0F8039063F3891935
:103DF000A0F8039090F8049065F3850980F804908A
:103E0000B0F8079066F30909A0F80790B0F8089099
:103E100067F38C09A0F80890B0F809906CF34F197B
:103E2000A0F80990B0F80B9068F30909A0F80B907E
:103E3000BDE8F0871B48406800F0006080B31A4876
:103E4000406B00681949884205D94FF00060174956
:103E50004C3908601CE01448406B00681149B831C7
:103E6000884205D94FF000601049503908600FE0D2
:103E70000D48406B00680B495831884204D94FF017
:103E800000600849C86003E04FF0006005498860A1
:103E900005480068006840F400700349096808603C
:103EA0007047000000600240141100205864024076
:103EB00010B5024801F09AFB10BD00009C150020CF
:103EC00010B5024801F092FB10BD0000FC15002067
:103ED00010B5024801F08AFB10BD00007C140020E0
:103EE0000146087810381823B0FBF3F20848805CCC
:103EF000C865032A05D908686FF30900001D8865A5
:103F000003E008686FF309008865886D704700005A
:103F1000C8C90108014600208A6A8B69CBB932B151
:103F2000012A0DD0022A03D0032A10D10EE000BFCF
:103F3000CB6A03F08073B3F1807F00D1012007E0EA
:103F4000CB6AB3F1C07F00D1012001E000E000BFE7
:103F500034E08B69B3F5005F1AD132B1012A07D082
:103F6000022A03D0032A11D10AE000BF01200EE08B
:103F7000CB6A03F08073B3F1807F00D1012006E0AB
:103F8000CB6AB3F1C07F00D1012000E000BF15E093
:103F900032B1012A05D0022A04D0032A0CD103E051
:103FA00000BF00BF012008E0CB6A03F08073B3F1CB
:103FB000807F00D1012000E000BF00BF70470000FB
:103FC00008B5084840680090074900980968884289
:103FD00004D206480068401C044908600249009861
:103FE000086008BD001000E06802002064020020A4
:103FF0000C494868F0EE400A00BF0A494968091AAE
:1040000001EE101AF8EE411A074991ED001AB8EEC8
:10401000411A20EE811AF4EEC11AF1EE10FAECD337
:1040200070470000001000E05802002010B52DED90
:10403000028B82B004460E484068019020680199C6
:10404000081A00EE100AF8EE400A0A4890ED000A3D
:10405000B8EE400A80EE801AB0EE418A01982060E6
:10406000FFF7AEFFB0EE480A02B0BDEC028B10BD08
:10407000001000E05802002010B52DED028B00F07A
:1040800059F80F4890ED000AB8EE400A808800EE1B
:10409000900AF8EE600A9FED0B1A00EE810A0848BC
:1040A000C08800EE900AF8EE600A9FED071A00EE55
:1040B000810AB0EE408AB0EE480ABDEC028B10BD1A
:1040C000500200206F12833ABD37863512490968C5
:1040D00041F08071104A11600021104A5160114670
:1040E000096841F0010111600D4941430D4A116019
:1040F000114609684FF47A72B1FBF2F10A4A116075
:1041000008490968064AB1FBF2F1084A116000212A
:10411000074A116070470000FCED00E0001000E06D
:1041200040420F00580200205C0200206002002084
:104130006402002038B5294840680090FFF740FF2E
:10414000274800684FF0FF31A0FB01310098181894
:1041500041F10001234A03C2234800232149026898
:1041600003C9FCF7F3FE214A03C220480CC81E48CD
:1041700000680024A2FB001503FB005002FB0402B0
:104180001848D0E90030591A60EB0200184AC2E919
:1041900000101648006817490860174800231449A2
:1041A000026803C9FCF7D2FE12498880084680885D
:1041B0001149096841430E48D0E90030591A60F1AD
:1041C00000000E4AC2E900100D4800230B490268A6
:1041D00003C9FCF7BBFE0749C88038BD001000E0EA
:1041E00064020020700200205802002078020020A3
:1041F00080020020500200205C0200208802002083
:1042000060020020704710B5012001F09BFB10BD3B
:1042100010B5082001F096FB10BD10B5102001F07C
:1042200091FB10BD10B5202001F08CFB10BDD2ED2C
:10423000020A92ED021AB6EE000A00EEC10AD2EDB1
:10424000030A92ED031A00EEC10AD0ED000A20EE37
:10425000200AD2ED010A92ED021A60EE810A92ED77
:10426000001AD2ED031A41EE210A90ED011A00EE78
:10427000810AD2ED010A92ED031A60EE810A92EDF5
:10428000001AD2ED021A41EE610A90ED021A00EE18
:10429000810AF0EE000A20EE200A81ED000A92ED7C
:1042A000010AD2ED020A20EE200AD2ED000A92EDB8
:1042B000031A00EEC10AD0ED000A60EE200A92ED6A
:1042C000011AD2ED011AB6EE000A01EE610AD2ED32
:1042D000031A92ED032AB0EE401A01EEC21AD0ED95
:1042E000011AB0EE600A01EE210AD2ED020A92ED47
:1042F000031A60EE810A92ED001AD2ED011A41EE26
:10430000210A90ED021A00EE810AF0EE000A20EE7A
:10431000200A81ED010A92ED010AD2ED030A20EE96
:10432000200AD2ED000A92ED021A00EE810AD0EDC9
:10433000000A20EE200AD2ED020A92ED031A60EE86
:10434000810A92ED001AD2ED011A41EE610A90ED58
:10435000011A00EE810A92ED011AD2ED011AF6EE71
:10436000000A41EE610A92ED021AD2ED021A41EE04
:10437000610A90ED021A00EE810AF0EE000A20EECA
:10438000200A81ED020A70477047000030B50346ED
:1043900013B94FF6FF7030BD09E013F8014B82EA04
:1043A0000400C0B2054D35F8100080EA2222081E34
:1043B000A1F10101F1D11046EDE70000C8CB0108E1
:1043C00030B5034605E013F8010B80EA0204044807
:1043D000025D081EA1F10101F5D1104630BD0000BB
:1043E000C7CA010870B50A480468001D0568001DA9
:1043F0000668344454B108220649204605F088FE78
:10440000042204491031284605F082FE70BD0000E8
:10441000107AFF1F7600002038B502460020009079
:1044200000BF92F83C00012801D1022038BD0120D4
:1044300082F83C0000BF0868092816D91068C068D7
:104440000C780A3C04EB44050724AC40A0431468F4
:10445000E0600C780A3C04EB44048868A0401468CF
:10446000E46820431468E06013E0106800690C7889
:1044700004EB44050724AC40A043146820610C7889
:1044800004EB44048868A04014682469204314683D
:1044900020614868072817D21068406B0C79641EA9
:1044A00004EB84051F24AC40A043146860630888B3
:1044B00080B20C79641E04EB8404A0401468646B21
:1044C00020431468606331E048680D2817D21068F3
:1044D000006B0C79E41F04EB84051F24AC40A0435F
:1044E00014682063088880B20C79E41F04EB84040C
:1044F000A0401468246B20431468206316E0106801
:10450000C06A0C790D3C04EB84051F24AC40A04329
:104510001468E062088880B20C790D3C04EB8404D6
:10452000A0401468E46A20431468E062194B1A4CF6
:104530001068A04206D10868122803D1586840F4D8
:1045400080005860144C1068A0421CD108681028E4
:1045500002D00868112816D1586840F4000058604D
:10456000086810280FD10D4800680D4CB0FBF4F01E
:1045700000EB80004000009002E00098401E009098
:1045800000980028F9D100BF002082F83C0000BF4D
:1045900000BF4BE70023014000200140AC00002099
:1045A00040420F0001460868C06C704770B5044671
:1045B00000250CB9012070BD1549A06A884200D0C1
:1045C00000BF206C30B9204600F024F80020606461
:1045D00084F83C00206C00F0100088B9206C20F4B6
:1045E000885040F0020020642046FEF7ABFB00201C
:1045F0006064206C20F0020040F00100206400E0C4
:10460000012500BF002084F83C0000BF2846D2E707
:104610000100000F10B586B00446142101A8FCF774
:10462000F5FE2349206888420FD100BF002000908A
:104630002048006840F480701E4908600846006801
:1046400000F48070009000BF2FE01B492068884272
:104650002BD100BF002000901648006840F4806015
:10466000144908600846006800F48060009000BFAC
:1046700000BF00BF002000900E481438006840F0D2
:1046800020000C49143908600846006800F020003A
:10469000009000BF00BF0815019003200290002089
:1046A000039001A9054801F05BF906B010BD0000B8
:1046B0000020014044380240002201400014024022
:1046C00070B504460D4600262068806800F48060BE
:1046D000B0F5806F11D12068806800F48070B0F56B
:1046E000807F0AD1206C40F02000206400BF0020B1
:1046F00084F83C0000BF012070BD01F03FFA06467F
:1047000012E0681C80B125B101F038FA801BA84284
:104710000AD9206C40F00400206400BF002084F817
:104720003C0000BF0320E7E72068006800F00200BB
:104730000228E6D16FF0120021680860206C40F476
:10474000007020642068806800F04050B8B9207E76
:10475000A8B92068C06A00F4700020B120688068A1
:1047600000F4806058B9206C20F480702064206CC4
:1047700000F4805018B9206C40F001002064002043
:10478000BAE7000008B501460020009000BF91F88C
:104790003C00012801D1022008BD012081F83C0025
:1047A00000BF0868806800F00100A0B90868806850
:1047B00040F001000B6898603B4800683B4BB0FB41
:1047C000F3F000EB4000009002E00098401E0090E3
:1047D00000980028F9D10868806800F001000028DE
:1047E0005FD0086C40F20163984340F48070086425
:1047F0000868406800F4806028B1086C20F400501C
:1048000040F480500864086C00F48050B0F5805F7C
:1048100004D1486C20F00600486401E000204864A0
:1048200000BF002081F83C0000BF214A6FF0220049
:104830000B681860506800F01F0018BB1D4B08681B
:10484000984213D01C4B0868984204D1101D006890
:1048500000F01F0050B1194B0868984221D114484C
:10486000001D006800F01F0010281AD20868806838
:1048700000F0405028B90868806840F080400B681C
:1048800098600EE00B4B086898420AD1086880686F
:1048900000F0405028B90868806840F080400B68FC
:1048A0009860002078E70000AC00002040420F0034
:1048B000002301400020014000210140002201406E
:1048C00010B5024692F82030012B01D0022B06D100
:1048D00010684069084314686061002010BD506A88
:1048E00040F4802050620120F8E7F0B504460D4600
:1048F0001E4694F8207020688368A86800B900E01C
:1049000000BF012F01D0022F7CD103F0806030B9AD
:1049100003F0006018B903F08050002873D0C3F38F
:104920000161022905D9606A40F40000606201203B
:10493000F0BD012088403060A86860B9B5F800C0BB
:10494000E86840EA4C5C206800F5C07000EB01109C
:10495000C0F800C00FE0D5E901C040EACC00D5F8AE
:104960000CC040EA0C00D4F800C00CF5C07C0CEB85
:10497000011CCCF80000D5F810C0206800F5C0700C
:1049800000EB0110C0F804C0287D01280ED120687A
:1049900000F5C07000EB0110406840F4807C206896
:1049A00000F5C07000EB0110C0F804C0D07900061B
:1049B00092F806C040EA0C4092F805C040EA0C2C80
:1049C00010794CEA000C206800F5C07000EB011073
:1049D000C0F80CC0D078000692F802C040EA0C4043
:1049E00092F801C040EA0C2092F800C040EA0C00A6
:1049F000D4F800C00CF5C07C0CEB011CCCF808000E
:104A0000206801E016E00FE000F5C07000EB011037
:104A1000006840F0010C206800F5C07000EB011048
:104A2000C0F800C0002083E7606A40F400106062B4
:104A300001207DE7606A40F480206062012077E712
:104A4000F0B504460A46216894F82050012D01D0A3
:104A5000022D7ED1424901F50071086840F0010045
:104A60000860086820F47C5008600868566A40EACC
:104A700006200860107D00F01F06012000FA06F3F2
:104A8000C8699843C861A1F50071D069C8B9D1F867
:104A90000C029843C1F80C02908880B2968940EAD3
:104AA000064601F51070576940F83760108880B2EB
:104AB000168940EA064601F51070576900EBC700F9
:104AC0004660D069012819D1D1F80C021843C1F809
:104AD0000C02908880B2168840EA064601F51070F4
:104AE000576940F83760908980B2168940EA0646D7
:104AF00001F51070576900EBC7004660906928B94E
:104B0000D1F804029843C1F8040204E0D1F8040289
:104B10001843C1F80402106928B9D1F81402984367
:104B2000C1F8140204E0D1F814021843C1F81402C9
:104B3000106A012804D1D1F81C021843C1F81C02E4
:104B4000D1F8000220F00100C1F800020020F0BD01
:104B5000FFE7606A40F4802060620120F7E7000010
:104B600000640040704770B5044694F82050012D51
:104B700001D0022D7CD151B92068C06800F003003B
:104B800080B9606A40F400106062012070BD206846
:104B9000006900F0030028B9606A40F40010606208
:104BA0000120F3E7206800F5D87000EB01100068E1
:104BB00000F004009060906840B9206800F5D8705B
:104BC00000EB01100068400D106007E0206800F560
:104BD000D87000EB01100068C0085060206800F534
:104BE000D87000EB0110006800F002004008D060AF
:104BF000206800F5D87000EB0110406800F00F004D
:104C00001061206800F5D87000EB0110406800F4D6
:104C10007F40000A9061206800F5D87000EB011019
:104C20004068000C5061206800F5D87000EB01105E
:104C300080681870206800F5D87000EB011080685B
:104C400000F47F40000A5870206800F5D87000EB2F
:104C50000110806800F47F00000C9870206800F557
:104C6000D87000EB01108068000ED870206800E05A
:104C700031E000F5D87000EB0110C06818712068B1
:104C800000F5D87000EB0110C06800F47F40000A06
:104C90005871206800F5D87000EB0110C06800F46E
:104CA0007F00000C9871206800F5D87000EB0110AF
:104CB000C068000ED87131B92068C06840F020008B
:104CC0002668F06005E02068006940F02000266852
:104CD000306100205AE7606A40F480206062012061
:104CE00054E72DE9F05F04460025206846692068F6
:104CF000D0F80490206887682068D0F80CA020685D
:104D0000D0F810B02068D0F8188006F00100002814
:104D100055D007F00100C0B101202168886007F07C
:104D2000020018B1204600F01AFC0EE007F0040063
:104D300010B145F4006508E007F0080010B145F433
:104D4000805502E0204600F009FC07F48070C8B1ED
:104D50004FF480702168886007F4007018B1204615
:104D600000F0FFFB0EE007F4806010B145F4005541
:104D700008E007F4006010B145F4804502E02046E9
:104D800000F0EEFB07F48030C8B14FF480302168AA
:104D9000886007F4003018B1204600F0E4FB0EE014
:104DA00007F4802010B145F4004508E007F4002026
:104DB00010B145F4803502E0204600F0D3FB06F048
:104DC000080038B10AF0100020B145F40075102039
:104DD0002168C86006F0040040B10AF0080028B15C
:104DE00008202168C860204600F00CFA06F0020096
:104DF00038B12068C06800F0030010B1204600F010
:104E000003FA06F0400038B10BF0100020B145F471
:104E1000806510202168086106F0200040B10BF089
:104E2000080028B1082021680861204600F064FBD2
:104E300006F0100038B12068006900F0030010B1DE
:104E4000204600F05AFB06F4003040B109F0100093
:104E500028B1102021684860204600F04FFB06F47E
:104E6000803040B109F0080028B10820216848606E
:104E7000204600F079FB06F4004088B309F00400F6
:104E800078B306F4807020B108F0010008B145F055
:104E9000010506F4007020B108F0020008B145F0E9
:104EA000020506F4806020B108F0040008B145F066
:104EB000040506F40060A0B108F0700088B108F0A5
:104EC0007000402817D006DC10280BD020280CD00A
:104ED000302819D10CE0502810D0602814D110E0EF
:104EE0001DE019E045F008050FE045F010050CE065
:104EF00045F0200509E045F0400506E045F0800555
:104F000003E045F4807500E000BF00BF20688069C1
:104F100020F07000216888610420216848602DB16C
:104F2000606A284360622046FFF71CFEBDE8F09FE0
:104F300070B504460CB9012070BD94F8200010B97A
:104F4000204600F0AFF82068006820F002002168D9
:104F5000086000F013FE05460DE000F00FFE401B58
:104F60000A2808D9606A40F400306062052084F89D
:104F700020000120E0E72068406800F002000028DF
:104F8000EBD12068006840F001002168086000F063
:104F9000F5FD05460DE000F0F1FD401B0A2808D99B
:104FA000606A40F400306062052084F8200001202F
:104FB000C2E72068406800F001000028EBD0207EA6
:104FC000012806D12068006840F080002168086050
:104FD00005E02068006820F0800021680860607E9D
:104FE000012806D12068006840F040002168086070
:104FF00005E02068006820F0400021680860A07E7D
:10500000012806D12068006840F02000216808606F
:1050100005E02068006820F0200021680860E07E3C
:10502000012806D12068006820F01000216808607F
:1050300005E02068006840F0100021680860207FCB
:10504000012806D12068006840F008002168086047
:1050500005E02068006820F0080021680860607F93
:10506000012806D12068006840F00400216808602B
:1050700005E02068006820F0040021680860D4E999
:105080000201084321690843616908436168491EB8
:1050900008432168C86100206062012084F8200074
:1050A000002049E710B586B00446142101A8FCF79A
:1050B000ADF94E492068884241D14D480068401CF6
:1050C0004B4908600846006801280FD100BF002046
:1050D00000904848006840F0007046490860084663
:1050E000006800F00070009000BF00BF00BF00200B
:1050F000009040481038006840F008003D491039E1
:1051000008600846006800F00800009000BF00BF7B
:1051100003200190022002900020039003200490BD
:105120000920059001A9344800F01AFC002206214C
:10513000142000F093FF142000F080FF54E02F496A
:105140002068884250D100BF0020009029480068A4
:1051500040F08060274908600846006800F08060E1
:10516000009000BF00BF22480068401C2049086032
:105170000846006801280FD100BF002000901D489C
:10518000006840F000701B4908600846006800F0A5
:105190000070009000BF00BF00BF002000901548C5
:1051A0001038006840F002001249103908600846C3
:1051B000006800F00200009000BF00BF6020019076
:1051C0000220029000200390032004900920059003
:1051D00001A90B4800F0C4FB00220621402000F08A
:1051E0003DFF402000F02AFF06B010BD00640040E3
:1051F0000000002040380240000C024000680040DF
:10520000000402407047000010B58AB0044601ABAC
:1052100003AA00212046FFF7A6FCB24884427CD1B5
:105220000398A0F20120062878D2DFE800F00304FA
:105230000506527800BF00BF00BF0398401EAA4970
:1052400008700846007800EB8000A84931F810008B
:1052500000B2A549097801EB8101A44A02EB4101A2
:1052600008819DF805009DF8041040EA01209E4940
:10527000097801EB810122F811009DF807009DF8E3
:10528000061040EA012000B29749097801EB81013C
:1052900002EB410148809DF809009DF8081040EAA2
:1052A000012000B29049097801EB810102EB410134
:1052B00088809DF80A008C49097801EB810102EB96
:1052C0004101887188490978491CC8B20EF024FF51
:1052D0004AE08648008D01B2844801869DF80500A9
:1052E0009DF8041040EA0120804908859DF80700D8
:1052F0009DF8061040EA012001B27C4841859DF8E6
:1053000009009DF8081040EA012001B27748818524
:105310009DF80A1080F82E1026E026E023E073485E
:10532000408E01B2714841879DF805009DF8041038
:1053300040EA01206D4948869DF807009DF8061057
:1053400040EA012001B2694881869DF809009DF874
:10535000081040EA012001B26448C1869DF80A1095
:1053600080F8381000E000BFBAE061488442FBD109
:105370000398A0F2022030B1012830D002285AD080
:105380000F287DD185E05948B0F8460001B2574852
:10539000A0F84E109DF805009DF8041040EA012089
:1053A0005249A1F846009DF807009DF8061040EA12
:1053B000012001B24D48A0F848109DF809009DF861
:1053C000081040EA012001B24848A0F84A109DF8B0
:1053D0000A1080F84C1009200EF09EFE7FE0434832
:1053E000B0F8500001B24148A0F858109DF80500EF
:1053F0009DF8041040EA01203C49A1F850009DF8B6
:1054000007009DF8061040EA012001B23748A0F8D5
:1054100052109DF809009DF8081040EA012001B2E1
:105420003248A0F854109DF80A1080F856100A204F
:105430000EF072FE53E02D48B0F85A0001B22B482E
:10544000A0F862109DF805009DF8041040EA0120C4
:105450002649A1F85A009DF807009DF8061040EA79
:10546000012001B22148A0F85C109DF809009DF8C8
:10547000081040EA012001B21C48A0F85E1000E0CC
:105480002CE09DF80A1080F8601007200EF044FE12
:1054900025E09DF804009DF8051040EA012000B2C7
:1054A000144908809DF806009DF8071040EA012085
:1054B00000B2104948809DF808009DF8091040EAA4
:1054C000012000B20B4988809DF80A009DF80B105E
:1054D00040EA012000B20749C88000E000BF00BFD9
:1054E0000AB010BDC8090020E0020020609700202B
:1054F000F0090020CC02002070477047704770B55B
:10550000044694F82000012822D1022084F82000CB
:105510002068006820F001002168086000F02EFB80
:1055200005460DE000F02AFB401B0A2808D9606AF6
:1055300040F400306062052084F82000012070BD36
:105540002068406800F001000028EBD16062F6E7B7
:10555000606A40F4002060620120F0E77047704705
:105560007047704770477047704710B504460CB9D4
:10557000012010BD607920B900202071204600F084
:1055800007F802206071012060710020F1E700003F
:1055900008B50A4A016891420FD100BF002100916D
:1055A0000749096841F48051054A116011460968AC
:1055B00001F48051009100BF00BF08BD00300240DF
:1055C00030380240014691F83500022803D080208F
:1055D000486501207047052081F83500086800689B
:1055E00020F001000A6810600020F3E7F8B50446D7
:1055F000002000908C4800684FF41651B0FBF1F782
:10560000A56D2E6894F85C1008208840304098B151
:105610002068006800F0040070B12068006820F085
:1056200004002168086094F85C1008208840A86095
:10563000606D40F00100606594F85C1001208840C6
:10564000304068B12068406900F0800040B194F8B3
:105650005C1001208840A860606D40F00200606529
:1056600094F85C1004208840304068B120680068DD
:1056700000F0020040B194F85C1004208840A8605B
:10568000606D40F00400606594F85C101020884064
:10569000304078B32068006800F0080050B394F8F8
:1056A0005C1010208840A8602068006800F480200A
:1056B00080B12068006800F4002028B9206CC8B1CF
:1056C0002046216C884715E0A06C98B12046A16C5B
:1056D00088470FE02068006800F4807028B92068CF
:1056E000006820F0080021680860206C10B1204696
:1056F000216C884794F85C102020884030400028B6
:1057000065D02068006800F0100000285FD094F891
:105710005C1020208840A86094F83500052828D126
:105720002068006820F01600216808602068406941
:1057300020F0800021684861206C08B9A06C28B175
:105740002068006820F008002168086094F85C1068
:105750003F208840A86000BF002084F8340000BFCC
:10576000012084F83500206D10B12046216D884756
:10577000F8BD2068006800F4802080B120680068CF
:1057800000F4002028B9606C10B12046616C884795
:105790001DE0E06BD8B12046E16B884717E0206838
:1057A000006800F4807068B92068006820F010007C
:1057B0002168086000BF002084F8340000BF012089
:1057C00084F83500E06B10B12046E16B8847606DCE
:1057D00038B3606D00F00100F0B1052084F83500A9
:1057E0002068006820F001002168086000BF009870
:1057F000401C0090B84200D905E02068006800F025
:1058000001000028F3D100BF00BF002084F834005D
:1058100000BF012084F83500E06C10B12046E16C37
:10582000884700BFA4E70000AC0000202DE9F0414C
:105830000446002500F0A2F9074614B90120BDE88E
:10584000F081606A00B100BF00BF002084F834001E
:1058500000BF022084F835002068006820F00100B5
:10586000216808600AE000F089F9C01B052805D905
:1058700020206065032084F83500E0E72068006898
:1058800000F001000028EED120680568214805409D
:10589000D4E901010843E1680843216908436169CB
:1058A0000843A1690843E1690843216A08430543A5
:1058B000606A042803D1D4E90B010843054320683A
:1058C00005602068456925F00705606A0543606A40
:1058D00004280DD1A06A0543E06A48B12046FEF7CE
:1058E00019FB28B140206065012084F83500A6E747
:1058F000206845612046FEF7F3FA064694F85C10EE
:105900003F208840B06000206065012084F83500A9
:10591000002094E73F8010F070B5044600F02EF9A7
:1059200006462546681C10B104480078054400BFAF
:1059300000F024F9801BA842FAD370BDA800002013
:105940007047000010B5044604480068204020B1AC
:10595000024804602046FFF7F3FF10BD143C0140ED
:10596000F8B502460B460025002400200021DCE0AB
:10597000012606FA01F51E6806EA0504AC4273D159
:105980005E68022E02D05E68122E13D1CF0802F19B
:10599000200656F827004E07F70E0F26BE40B043EC
:1059A0004F07FF0E1E69BE403043CF0802F12006AC
:1059B00046F8270010684F000326BE40B0431E790A
:1059C00006F003064F00BE40304310605E68012EB3
:1059D00008D05E68022E05D05E68112E02D05E6887
:1059E000122E13D190684F000326BE40B0434F00E3
:1059F000DE68BE4030439060506801268E40B04360
:105A00001E79C6F300168E4030435060D0684F00B8
:105A10000326BE40B0434F009E68BE403043D06076
:105A20005E6806F08056B6F1805F7DD100BF00262B
:105A30000096404E366846F480463E4F3E603E46F5
:105A4000366806F48046009600BF00BF3A4E8F08C5
:105A500056F827008E07370F0F26BE40B043374E4B
:105A6000B24202D1002624E05EE0354EB24201D1BE
:105A700001261EE0334EB24201D1022619E0324E19
:105A8000B24201D1032614E0304EB24201D10426C5
:105A90000FE02F4EB24201D105260AE02D4EB24250
:105AA00001D1062605E02C4EB24201D1072600E0C6
:105AB00008268F073F0FBE4030431F4E8F0846F821
:105AC0002700264E3068A0435E6806F48036B6F59F
:105AD000803F00D12043214E3060361D3068A04306
